{
  "_format": "hh-sol-artifact-1",
  "contractName": "Profile",
  "sourceName": "contracts/Profile.sol",
  "abi": [
    {
      "inputs": [
        {
          "internalType": "address",
          "name": "_user",
          "type": "address"
        }
      ],
      "name": "getProfile",
      "outputs": [
        {
          "components": [
            {
              "internalType": "string",
              "name": "displayName",
              "type": "string"
            },
            {
              "internalType": "string",
              "name": "role",
              "type": "string"
            }
          ],
          "internalType": "struct Profile.UserProfile",
          "name": "",
          "type": "tuple"
        }
      ],
      "stateMutability": "view",
      "type": "function"
    },
    {
      "inputs": [
        {
          "internalType": "address",
          "name": "",
          "type": "address"
        }
      ],
      "name": "profiles",
      "outputs": [
        {
          "internalType": "string",
          "name": "displayName",
          "type": "string"
        },
        {
          "internalType": "string",
          "name": "role",
          "type": "string"
        }
      ],
      "stateMutability": "view",
      "type": "function"
    },
    {
      "inputs": [
        {
          "internalType": "string",
          "name": "_displayName",
          "type": "string"
        },
        {
          "internalType": "string",
          "name": "_role",
          "type": "string"
        }
      ],
      "name": "setProfile",
      "outputs": [],
      "stateMutability": "nonpayable",
      "type": "function"
    }
  ],
  "bytecode": "0x608060405234801561001057600080fd5b50610afa806100206000396000f3fe608060405234801561001057600080fd5b50600436106100415760003560e01c80630f53a47014610046578063719e37ae14610076578063bbe1562714610092575b600080fd5b610060600480360381019061005b919061048b565b6100c3565b60405161006d919061058c565b60405180910390f35b610090600480360381019061008b91906106e3565b61023f565b005b6100ac60048036038101906100a7919061048b565b6102cb565b6040516100ba9291906107a5565b60405180910390f35b6100cb6103ff565b6000808373ffffffffffffffffffffffffffffffffffffffff1673ffffffffffffffffffffffffffffffffffffffff1681526020019081526020016000206040518060400160405290816000820180546101249061080b565b80601f01602080910402602001604051908101604052809291908181526020018280546101509061080b565b801561019d5780601f106101725761010080835404028352916020019161019d565b820191906000526020600020905b81548152906001019060200180831161018057829003601f168201915b505050505081526020016001820180546101b69061080b565b80601f01602080910402602001604051908101604052809291908181526020018280546101e29061080b565b801561022f5780601f106102045761010080835404028352916020019161022f565b820191906000526020600020905b81548152906001019060200180831161021257829003601f168201915b5050505050815250509050919050565b60006040518060400160405280848152602001838152509050806000803373ffffffffffffffffffffffffffffffffffffffff1673ffffffffffffffffffffffffffffffffffffffff16815260200190815260200160002060008201518160000190816102ac91906109f2565b5060208201518160010190816102c291906109f2565b50905050505050565b60006020528060005260406000206000915090508060000180546102ee9061080b565b80601f016020809104026020016040519081016040528092919081815260200182805461031a9061080b565b80156103675780601f1061033c57610100808354040283529160200191610367565b820191906000526020600020905b81548152906001019060200180831161034a57829003601f168201915b50505050509080600101805461037c9061080b565b80601f01602080910402602001604051908101604052809291908181526020018280546103a89061080b565b80156103f55780601f106103ca576101008083540402835291602001916103f5565b820191906000526020600020905b8154815290600101906020018083116103d857829003601f168201915b5050505050905082565b604051806040016040528060608152602001606081525090565b6000604051905090565b600080fd5b600080fd5b600073ffffffffffffffffffffffffffffffffffffffff82169050919050565b60006104588261042d565b9050919050565b6104688161044d565b811461047357600080fd5b50565b6000813590506104858161045f565b92915050565b6000602082840312156104a1576104a0610423565b5b60006104af84828501610476565b91505092915050565b600081519050919050565b600082825260208201905092915050565b60005b838110156104f25780820151818401526020810190506104d7565b60008484015250505050565b6000601f19601f8301169050919050565b600061051a826104b8565b61052481856104c3565b93506105348185602086016104d4565b61053d816104fe565b840191505092915050565b60006040830160008301518482036000860152610565828261050f565b9150506020830151848203602086015261057f828261050f565b9150508091505092915050565b600060208201905081810360008301526105a68184610548565b905092915050565b600080fd5b600080fd5b7f4e487b7100000000000000000000000000000000000000000000000000000000600052604160045260246000fd5b6105f0826104fe565b810181811067ffffffffffffffff8211171561060f5761060e6105b8565b5b80604052505050565b6000610622610419565b905061062e82826105e7565b919050565b600067ffffffffffffffff82111561064e5761064d6105b8565b5b610657826104fe565b9050602081019050919050565b82818337600083830152505050565b600061068661068184610633565b610618565b9050828152602081018484840111156106a2576106a16105b3565b5b6106ad848285610664565b509392505050565b600082601f8301126106ca576106c96105ae565b5b81356106da848260208601610673565b91505092915050565b600080604083850312156106fa576106f9610423565b5b600083013567ffffffffffffffff81111561071857610717610428565b5b610724858286016106b5565b925050602083013567ffffffffffffffff81111561074557610744610428565b5b610751858286016106b5565b9150509250929050565b600082825260208201905092915050565b6000610777826104b8565b610781818561075b565b93506107918185602086016104d4565b61079a816104fe565b840191505092915050565b600060408201905081810360008301526107bf818561076c565b905081810360208301526107d3818461076c565b90509392505050565b7f4e487b7100000000000000000000000000000000000000000000000000000000600052602260045260246000fd5b6000600282049050600182168061082357607f821691505b602082108103610836576108356107dc565b5b50919050565b60008190508160005260206000209050919050565b60006020601f8301049050919050565b600082821b905092915050565b60006008830261089e7fffffffffffffffffffffffffffffffffffffffffffffffffffffffffffffffff82610861565b6108a88683610861565b95508019841693508086168417925050509392505050565b6000819050919050565b6000819050919050565b60006108ef6108ea6108e5846108c0565b6108ca565b6108c0565b9050919050565b6000819050919050565b610909836108d4565b61091d610915826108f6565b84845461086e565b825550505050565b600090565b610932610925565b61093d818484610900565b505050565b5b818110156109615761095660008261092a565b600181019050610943565b5050565b601f8211156109a6576109778161083c565b61098084610851565b8101602085101561098f578190505b6109a361099b85610851565b830182610942565b50505b505050565b600082821c905092915050565b60006109c9600019846008026109ab565b1980831691505092915050565b60006109e283836109b8565b9150826002028217905092915050565b6109fb826104b8565b67ffffffffffffffff811115610a1457610a136105b8565b5b610a1e825461080b565b610a29828285610965565b600060209050601f831160018114610a5c5760008415610a4a578287015190505b610a5485826109d6565b865550610abc565b601f198416610a6a8661083c565b60005b82811015610a9257848901518255600182019150602085019450602081019050610a6d565b86831015610aaf5784890151610aab601f8916826109b8565b8355505b6001600288020188555050505b50505050505056fea2646970667358221220e83994e42b93931f1eeb192087d5b5eff91cb60a1fa6717447d07778e0a026e564736f6c63430008180033",
  "linkReferences": {},
  "deployedLinkReferences": {}
}