{
  "_format": "hh-sol-artifact-1",
  "contractName": "Escrow",
  "sourceName": "contracts/Escrow.sol",
  "abi": [
    {
      "inputs": [
        {
          "internalType": "address",
          "name": "_propertyContract",
          "type": "address"
        }
      ],
      "stateMutability": "nonpayable",
      "type": "constructor"
    },
    {
      "anonymous": false,
      "inputs": [
        {
          "indexed": true,
          "internalType": "address",
          "name": "from",
          "type": "address"
        },
        {
          "indexed": true,
          "internalType": "address",
          "name": "to",
          "type": "address"
        },
        {
          "indexed": true,
          "internalType": "uint256",
          "name": "propertyId",
          "type": "uint256"
        }
      ],
      "name": "TransferInitiated",
      "type": "event"
    },
    {
      "inputs": [
        {
          "internalType": "uint256",
          "name": "_propertyid",
          "type": "uint256"
        }
      ],
      "name": "approvePurchase",
      "outputs": [],
      "stateMutability": "nonpayable",
      "type": "function"
    },
    {
      "inputs": [
        {
          "internalType": "uint256",
          "name": "_propertyid",
          "type": "uint256"
        }
      ],
      "name": "buyerCancelPurchase",
      "outputs": [
        {
          "internalType": "bool",
          "name": "",
          "type": "bool"
        }
      ],
      "stateMutability": "payable",
      "type": "function"
    },
    {
      "inputs": [
        {
          "internalType": "uint256",
          "name": "_propertyid",
          "type": "uint256"
        }
      ],
      "name": "checkEscrow",
      "outputs": [
        {
          "components": [
            {
              "internalType": "uint256",
              "name": "propertyid",
              "type": "uint256"
            },
            {
              "internalType": "address",
              "name": "seller",
              "type": "address"
            },
            {
              "internalType": "address",
              "name": "buyer",
              "type": "address"
            },
            {
              "internalType": "bool",
              "name": "approval",
              "type": "bool"
            },
            {
              "internalType": "bool",
              "name": "isListed",
              "type": "bool"
            },
            {
              "internalType": "uint256",
              "name": "purchasePrice",
              "type": "uint256"
            },
            {
              "internalType": "uint256",
              "name": "deposit",
              "type": "uint256"
            },
            {
              "internalType": "uint8",
              "name": "fundStatus",
              "type": "uint8"
            }
          ],
          "internalType": "struct Escrow.PropertyEscrow",
          "name": "",
          "type": "tuple"
        }
      ],
      "stateMutability": "view",
      "type": "function"
    },
    {
      "inputs": [
        {
          "internalType": "uint256",
          "name": "_propertyid",
          "type": "uint256"
        }
      ],
      "name": "completePurchase",
      "outputs": [],
      "stateMutability": "payable",
      "type": "function"
    },
    {
      "inputs": [],
      "name": "contractOwner",
      "outputs": [
        {
          "internalType": "address",
          "name": "",
          "type": "address"
        }
      ],
      "stateMutability": "view",
      "type": "function"
    },
    {
      "inputs": [
        {
          "internalType": "uint256",
          "name": "_propertyid",
          "type": "uint256"
        },
        {
          "internalType": "uint256",
          "name": "_purchasePrice",
          "type": "uint256"
        }
      ],
      "name": "createEscrow",
      "outputs": [],
      "stateMutability": "payable",
      "type": "function"
    },
    {
      "inputs": [
        {
          "internalType": "uint256",
          "name": "_propertyid",
          "type": "uint256"
        }
      ],
      "name": "initiatePurchase",
      "outputs": [],
      "stateMutability": "payable",
      "type": "function"
    },
    {
      "inputs": [
        {
          "internalType": "uint256",
          "name": "",
          "type": "uint256"
        }
      ],
      "name": "propertyEscrow",
      "outputs": [
        {
          "internalType": "uint256",
          "name": "propertyid",
          "type": "uint256"
        },
        {
          "internalType": "address",
          "name": "seller",
          "type": "address"
        },
        {
          "internalType": "address",
          "name": "buyer",
          "type": "address"
        },
        {
          "internalType": "bool",
          "name": "approval",
          "type": "bool"
        },
        {
          "internalType": "bool",
          "name": "isListed",
          "type": "bool"
        },
        {
          "internalType": "uint256",
          "name": "purchasePrice",
          "type": "uint256"
        },
        {
          "internalType": "uint256",
          "name": "deposit",
          "type": "uint256"
        },
        {
          "internalType": "uint8",
          "name": "fundStatus",
          "type": "uint8"
        }
      ],
      "stateMutability": "view",
      "type": "function"
    },
    {
      "inputs": [
        {
          "internalType": "uint256",
          "name": "",
          "type": "uint256"
        }
      ],
      "name": "propertyOwner",
      "outputs": [
        {
          "internalType": "address",
          "name": "",
          "type": "address"
        }
      ],
      "stateMutability": "view",
      "type": "function"
    },
    {
      "inputs": [
        {
          "internalType": "uint256",
          "name": "_propertyid",
          "type": "uint256"
        }
      ],
      "name": "releaseFunding",
      "outputs": [],
      "stateMutability": "payable",
      "type": "function"
    },
    {
      "inputs": [
        {
          "internalType": "uint256",
          "name": "_propertyid",
          "type": "uint256"
        }
      ],
      "name": "sellerCancelListing",
      "outputs": [
        {
          "internalType": "bool",
          "name": "",
          "type": "bool"
        }
      ],
      "stateMutability": "payable",
      "type": "function"
    }
  ],
  "bytecode": "0x60806040523480156200001157600080fd5b5060405162002e0538038062002e0583398181016040528101906200003791906200012a565b33600360006101000a81548173ffffffffffffffffffffffffffffffffffffffff021916908373ffffffffffffffffffffffffffffffffffffffff16021790555080600260006101000a81548173ffffffffffffffffffffffffffffffffffffffff021916908373ffffffffffffffffffffffffffffffffffffffff160217905550506200015c565b600080fd5b600073ffffffffffffffffffffffffffffffffffffffff82169050919050565b6000620000f282620000c5565b9050919050565b6200010481620000e5565b81146200011057600080fd5b50565b6000815190506200012481620000f9565b92915050565b600060208284031215620001435762000142620000c0565b5b6000620001538482850162000113565b91505092915050565b612c99806200016c6000396000f3fe60806040526004361061009c5760003560e01c8063bfeee90d11610064578063bfeee90d1461018a578063c0914f84146101a6578063c0a21d1f146101e3578063ce606ee0146101ff578063d1fedbc21461022a578063dd142be0146102675761009c565b80633b27a95f146100a15780637616eead146100d157806393e15c1014610115578063b37b53f714610145578063b3bcf7521461016e575b600080fd5b6100bb60048036038101906100b69190611fc7565b610283565b6040516100c8919061200f565b60405180910390f35b3480156100dd57600080fd5b506100f860048036038101906100f39190611fc7565b61066f565b60405161010c989796959493929190612096565b60405180910390f35b61012f600480360381019061012a9190611fc7565b61071e565b60405161013c919061200f565b60405180910390f35b34801561015157600080fd5b5061016c60048036038101906101679190611fc7565b610beb565b005b61018860048036038101906101839190611fc7565b610dc2565b005b6101a4600480360381019061019f9190611fc7565b61115a565b005b3480156101b257600080fd5b506101cd60048036038101906101c89190611fc7565b611381565b6040516101da91906121f2565b60405180910390f35b6101fd60048036038101906101f8919061220e565b6114d1565b005b34801561020b57600080fd5b5061021461197a565b604051610221919061224e565b60405180910390f35b34801561023657600080fd5b50610251600480360381019061024c9190611fc7565b6119a0565b60405161025e919061224e565b60405180910390f35b610281600480360381019061027c9190611fc7565b6119d3565b005b60008160008082815260200190815260200160002060020160009054906101000a900473ffffffffffffffffffffffffffffffffffffffff1673ffffffffffffffffffffffffffffffffffffffff163373ffffffffffffffffffffffffffffffffffffffff1614610329576040517f08c379a0000000000000000000000000000000000000000000000000000000008152600401610320906122c6565b60405180910390fd5b60008060008581526020019081526020016000209050600115158160020160159054906101000a900460ff16151514610397576040517f08c379a000000000000000000000000000000000000000000000000000000000815260040161038e90612332565b60405180910390fd5b600073ffffffffffffffffffffffffffffffffffffffff1660008086815260200190815260200160002060020160009054906101000a900473ffffffffffffffffffffffffffffffffffffffff1673ffffffffffffffffffffffffffffffffffffffff1614158015610469575060008085815260200190815260200160002060020160009054906101000a900473ffffffffffffffffffffffffffffffffffffffff1673ffffffffffffffffffffffffffffffffffffffff163373ffffffffffffffffffffffffffffffffffffffff16145b6104a8576040517f08c379a000000000000000000000000000000000000000000000000000000000815260040161049f906122c6565b60405180910390fd5b600080600086815260200190815260200160002060040154905081600401546012600a6104d591906124b4565b476104e091906124ff565b11610520576040517f08c379a00000000000000000000000000000000000000000000000000000000081526004016105179061258d565b60405180910390fd5b600081905061057a6040518060400160405280601b81526020017f726566756e644465706f736974202564206465706f7369742025640000000000815250826000808a815260200190815260200160002060040154611c04565b3373ffffffffffffffffffffffffffffffffffffffff166108fc829081150290604051600060405180830381858888f193505050501580156105c0573d6000803e3d6000fd5b50600080600088815260200190815260200160002060020160006101000a81548173ffffffffffffffffffffffffffffffffffffffff021916908373ffffffffffffffffffffffffffffffffffffffff160217905550600080600088815260200190815260200160002060020160146101000a81548160ff02191690831515021790555060008360050160006101000a81548160ff021916908360ff1602179055506001945050505050919050565b60006020528060005260406000206000915090508060000154908060010160009054906101000a900473ffffffffffffffffffffffffffffffffffffffff16908060020160009054906101000a900473ffffffffffffffffffffffffffffffffffffffff16908060020160149054906101000a900460ff16908060020160159054906101000a900460ff16908060030154908060040154908060050160009054906101000a900460ff16905088565b60008160008082815260200190815260200160002060010160009054906101000a900473ffffffffffffffffffffffffffffffffffffffff1673ffffffffffffffffffffffffffffffffffffffff163373ffffffffffffffffffffffffffffffffffffffff16146107c4576040517f08c379a00000000000000000000000000000000000000000000000000000000081526004016107bb906125f9565b60405180910390fd5b60008060008581526020019081526020016000209050600115158160020160159054906101000a900460ff16151514610832576040517f08c379a000000000000000000000000000000000000000000000000000000000815260040161082990612332565b60405180910390fd5b600073ffffffffffffffffffffffffffffffffffffffff168160020160009054906101000a900473ffffffffffffffffffffffffffffffffffffffff1673ffffffffffffffffffffffffffffffffffffffff16141580156108a7575060018160050160009054906101000a900460ff1660ff16145b156109845780600401546012600a6108bf91906124b4565b476108ca91906124ff565b1161090a576040517f08c379a00000000000000000000000000000000000000000000000000000000081526004016109019061258d565b60405180910390fd5b60008160020160009054906101000a900473ffffffffffffffffffffffffffffffffffffffff1690508073ffffffffffffffffffffffffffffffffffffffff166108fc83600401549081150290604051600060405180830381858888f1935050505015801561097d573d6000803e3d6000fd5b5050610ad3565b600073ffffffffffffffffffffffffffffffffffffffff168160020160009054906101000a900473ffffffffffffffffffffffffffffffffffffffff1673ffffffffffffffffffffffffffffffffffffffff16141580156109f9575060028160050160009054906101000a900460ff1660ff16145b15610ad25780600301546012600a610a1191906124b4565b47610a1c91906124ff565b11610a5c576040517f08c379a0000000000000000000000000000000000000000000000000000000008152600401610a539061258d565b60405180910390fd5b60008160020160009054906101000a900473ffffffffffffffffffffffffffffffffffffffff1690508073ffffffffffffffffffffffffffffffffffffffff166108fc83600301549081150290604051600060405180830381858888f19350505050158015610acf573d6000803e3d6000fd5b50505b5b600260009054906101000a900473ffffffffffffffffffffffffffffffffffffffff1673ffffffffffffffffffffffffffffffffffffffff166323b872dd308360010160009054906101000a900473ffffffffffffffffffffffffffffffffffffffff16876040518463ffffffff1660e01b8152600401610b5693929190612619565b600060405180830381600087803b158015610b7057600080fd5b505af1158015610b84573d6000803e3d6000fd5b5050505060008160020160156101000a81548160ff02191690831515021790555060008160020160146101000a81548160ff02191690831515021790555060058160050160006101000a81548160ff021916908360ff160217905550600192505050919050565b8060008082815260200190815260200160002060010160009054906101000a900473ffffffffffffffffffffffffffffffffffffffff1673ffffffffffffffffffffffffffffffffffffffff163373ffffffffffffffffffffffffffffffffffffffff1614610c8f576040517f08c379a0000000000000000000000000000000000000000000000000000000008152600401610c86906125f9565b60405180910390fd5b6001151560008084815260200190815260200160002060020160159054906101000a900460ff16151514610cf8576040517f08c379a0000000000000000000000000000000000000000000000000000000008152600401610cef90612332565b60405180910390fd5b6000151560008084815260200190815260200160002060020160149054906101000a900460ff16151514610d61576040517f08c379a0000000000000000000000000000000000000000000000000000000008152600401610d58906126c2565b60405180910390fd5b600160008084815260200190815260200160002060020160146101000a81548160ff021916908315150217905550600260008084815260200190815260200160002060050160006101000a81548160ff021916908360ff1602179055505050565b600360009054906101000a900473ffffffffffffffffffffffffffffffffffffffff1673ffffffffffffffffffffffffffffffffffffffff163373ffffffffffffffffffffffffffffffffffffffff1614610e52576040517f08c379a0000000000000000000000000000000000000000000000000000000008152600401610e4990612754565b60405180910390fd5b60008060008381526020019081526020016000209050600115158160020160159054906101000a900460ff16151514610ec0576040517f08c379a0000000000000000000000000000000000000000000000000000000008152600401610eb790612332565b60405180910390fd5b600115158160020160149054906101000a900460ff16151514610f18576040517f08c379a0000000000000000000000000000000000000000000000000000000008152600401610f0f906127e6565b60405180910390fd5b6000606460628360030154610f2d91906124ff565b610f379190612835565b9050610f60604051806060016040528060268152602001612c3e60269139828460030154611c04565b600260009054906101000a900473ffffffffffffffffffffffffffffffffffffffff1673ffffffffffffffffffffffffffffffffffffffff166323b872dd308460020160009054906101000a900473ffffffffffffffffffffffffffffffffffffffff16866040518463ffffffff1660e01b8152600401610fe393929190612619565b600060405180830381600087803b158015610ffd57600080fd5b505af1158015611011573d6000803e3d6000fd5b50505050828260020160009054906101000a900473ffffffffffffffffffffffffffffffffffffffff1673ffffffffffffffffffffffffffffffffffffffff163073ffffffffffffffffffffffffffffffffffffffff167f0cb34e106629dce34b632826bbba6b38e39c5957eb06a27e76efcc3d55da46b560405160405180910390a460008260010160009054906101000a900473ffffffffffffffffffffffffffffffffffffffff1690508073ffffffffffffffffffffffffffffffffffffffff166108fc839081150290604051600060405180830381858888f19350505050158015611103573d6000803e3d6000fd5b5060008360020160156101000a81548160ff021916908315150217905550600015158360020160149054906101000a9050505060048360050160006101000a81548160ff021916908360ff16021790555050505050565b8060008082815260200190815260200160002060020160009054906101000a900473ffffffffffffffffffffffffffffffffffffffff1673ffffffffffffffffffffffffffffffffffffffff163373ffffffffffffffffffffffffffffffffffffffff16146111fe576040517f08c379a00000000000000000000000000000000000000000000000000000000081526004016111f5906122c6565b60405180910390fd5b60008060008481526020019081526020016000209050600115158160020160159054906101000a900460ff1615151461126c576040517f08c379a000000000000000000000000000000000000000000000000000000000815260040161126390612332565b60405180910390fd5b600115158160020160149054906101000a900460ff161515146112c4576040517f08c379a00000000000000000000000000000000000000000000000000000000081526004016112bb906127e6565b60405180910390fd5b60006112e2826004015483600301546112dd9190612866565b611ca3565b905034826004015483600301546112f99190612866565b11158160405160200161130c9190612931565b6040516020818303038152906040529061135c576040517f08c379a000000000000000000000000000000000000000000000000000000000815260040161135391906129a1565b60405180910390fd5b5060038260050160006101000a81548160ff021916908360ff16021790555050505050565b611389611f0a565b600080600084815260200190815260200160002090508060405180610100016040529081600082015481526020016001820160009054906101000a900473ffffffffffffffffffffffffffffffffffffffff1673ffffffffffffffffffffffffffffffffffffffff1673ffffffffffffffffffffffffffffffffffffffff1681526020016002820160009054906101000a900473ffffffffffffffffffffffffffffffffffffffff1673ffffffffffffffffffffffffffffffffffffffff1673ffffffffffffffffffffffffffffffffffffffff1681526020016002820160149054906101000a900460ff161515151581526020016002820160159054906101000a900460ff1615151515815260200160038201548152602001600482015481526020016005820160009054906101000a900460ff1660ff1660ff1681525050915050919050565b6000151560008084815260200190815260200160002060020160159054906101000a900460ff1615151461153a576040517f08c379a000000000000000000000000000000000000000000000000000000000815260040161153190612a0f565b60405180910390fd5b3373ffffffffffffffffffffffffffffffffffffffff16600260009054906101000a900473ffffffffffffffffffffffffffffffffffffffff1673ffffffffffffffffffffffffffffffffffffffff16636352211e846040518263ffffffff1660e01b81526004016115ac9190612a2f565b6020604051808303816000875af11580156115cb573d6000803e3d6000fd5b505050506040513d601f19601f820116820180604052508101906115ef9190612a76565b73ffffffffffffffffffffffffffffffffffffffff1614611645576040517f08c379a000000000000000000000000000000000000000000000000000000000815260040161163c90612b15565b60405180910390fd5b60006040518061010001604052808481526020013373ffffffffffffffffffffffffffffffffffffffff168152602001600073ffffffffffffffffffffffffffffffffffffffff1681526020016000151581526020016001151581526020018381526020016064600a856116b991906124ff565b6116c39190612835565b8152602001600060ff168152509050806000808581526020019081526020016000206000820151816000015560208201518160010160006101000a81548173ffffffffffffffffffffffffffffffffffffffff021916908373ffffffffffffffffffffffffffffffffffffffff16021790555060408201518160020160006101000a81548173ffffffffffffffffffffffffffffffffffffffff021916908373ffffffffffffffffffffffffffffffffffffffff16021790555060608201518160020160146101000a81548160ff02191690831515021790555060808201518160020160156101000a81548160ff02191690831515021790555060a0820151816003015560c0820151816004015560e08201518160050160006101000a81548160ff021916908360ff160217905550905050336001600085815260200190815260200160002060006101000a81548173ffffffffffffffffffffffffffffffffffffffff021916908373ffffffffffffffffffffffffffffffffffffffff160217905550600260009054906101000a900473ffffffffffffffffffffffffffffffffffffffff1673ffffffffffffffffffffffffffffffffffffffff166323b872dd600260009054906101000a900473ffffffffffffffffffffffffffffffffffffffff1673ffffffffffffffffffffffffffffffffffffffff16636352211e866040518263ffffffff1660e01b81526004016118e09190612a2f565b6020604051808303816000875af11580156118ff573d6000803e3d6000fd5b505050506040513d601f19601f820116820180604052508101906119239190612a76565b30866040518463ffffffff1660e01b815260040161194393929190612619565b600060405180830381600087803b15801561195d57600080fd5b505af1158015611971573d6000803e3d6000fd5b50505050505050565b600360009054906101000a900473ffffffffffffffffffffffffffffffffffffffff1681565b60016020528060005260406000206000915054906101000a900473ffffffffffffffffffffffffffffffffffffffff1681565b6001151560008083815260200190815260200160002060020160159054906101000a900460ff16151514611a3c576040517f08c379a0000000000000000000000000000000000000000000000000000000008152600401611a3390612332565b60405180910390fd5b600073ffffffffffffffffffffffffffffffffffffffff1660008083815260200190815260200160002060020160009054906101000a900473ffffffffffffffffffffffffffffffffffffffff1673ffffffffffffffffffffffffffffffffffffffff1614611ae0576040517f08c379a0000000000000000000000000000000000000000000000000000000008152600401611ad790612b81565b60405180910390fd5b6000611b0060008084815260200190815260200160002060040154611ca3565b90503460008084815260200190815260200160002060040154111581604051602001611b2c9190612931565b60405160208183030381529060405290611b7c576040517f08c379a0000000000000000000000000000000000000000000000000000000008152600401611b7391906129a1565b60405180910390fd5b503360008084815260200190815260200160002060020160006101000a81548173ffffffffffffffffffffffffffffffffffffffff021916908373ffffffffffffffffffffffffffffffffffffffff160217905550600160008084815260200190815260200160002060050160006101000a81548160ff021916908360ff1602179055505050565b611c9e838383604051602401611c1c93929190612ba1565b6040516020818303038152906040527fca47c4eb000000000000000000000000000000000000000000000000000000007bffffffffffffffffffffffffffffffffffffffffffffffffffffffff19166020820180517bffffffffffffffffffffffffffffffffffffffffffffffffffffffff8381831617835250505050611d71565b505050565b606060006001611cb284611d8b565b01905060008167ffffffffffffffff811115611cd157611cd0612bdf565b5b6040519080825280601f01601f191660200182016040528015611d035781602001600182028036833780820191505090505b509050600082602001820190505b600115611d66578080600190039150507f3031323334353637383961626364656600000000000000000000000000000000600a86061a8153600a8581611d5a57611d59612806565b5b04945060008503611d11575b819350505050919050565b611d8881611d80611ede611eff565b63ffffffff16565b50565b600080600090507a184f03e93ff9f4daa797ed6e38ed64bf6a1f0100000000000000008310611de9577a184f03e93ff9f4daa797ed6e38ed64bf6a1f0100000000000000008381611ddf57611dde612806565b5b0492506040810190505b6d04ee2d6d415b85acef81000000008310611e26576d04ee2d6d415b85acef81000000008381611e1c57611e1b612806565b5b0492506020810190505b662386f26fc100008310611e5557662386f26fc100008381611e4b57611e4a612806565b5b0492506010810190505b6305f5e1008310611e7e576305f5e1008381611e7457611e73612806565b5b0492506008810190505b6127108310611ea3576127108381611e9957611e98612806565b5b0492506004810190505b60648310611ec65760648381611ebc57611ebb612806565b5b0492506002810190505b600a8310611ed5576001810190505b80915050919050565b60006a636f6e736f6c652e6c6f679050600080835160208501845afa505050565b611f82819050919050565b60405180610100016040528060008152602001600073ffffffffffffffffffffffffffffffffffffffff168152602001600073ffffffffffffffffffffffffffffffffffffffff1681526020016000151581526020016000151581526020016000815260200160008152602001600060ff1681525090565b611f8a612c0e565b565b600080fd5b6000819050919050565b611fa481611f91565b8114611faf57600080fd5b50565b600081359050611fc181611f9b565b92915050565b600060208284031215611fdd57611fdc611f8c565b5b6000611feb84828501611fb2565b91505092915050565b60008115159050919050565b61200981611ff4565b82525050565b60006020820190506120246000830184612000565b92915050565b61203381611f91565b82525050565b600073ffffffffffffffffffffffffffffffffffffffff82169050919050565b600061206482612039565b9050919050565b61207481612059565b82525050565b600060ff82169050919050565b6120908161207a565b82525050565b6000610100820190506120ac600083018b61202a565b6120b9602083018a61206b565b6120c6604083018961206b565b6120d36060830188612000565b6120e06080830187612000565b6120ed60a083018661202a565b6120fa60c083018561202a565b61210760e0830184612087565b9998505050505050505050565b61211d81611f91565b82525050565b61212c81612059565b82525050565b61213b81611ff4565b82525050565b61214a8161207a565b82525050565b610100820160008201516121676000850182612114565b50602082015161217a6020850182612123565b50604082015161218d6040850182612123565b5060608201516121a06060850182612132565b5060808201516121b36080850182612132565b5060a08201516121c660a0850182612114565b5060c08201516121d960c0850182612114565b5060e08201516121ec60e0850182612141565b50505050565b6000610100820190506122086000830184612150565b92915050565b6000806040838503121561222557612224611f8c565b5b600061223385828601611fb2565b925050602061224485828601611fb2565b9150509250929050565b6000602082019050612263600083018461206b565b92915050565b600082825260208201905092915050565b7f4f6e6c792062757965722063616e2063616c6c2074686973206d6574686f6400600082015250565b60006122b0601f83612269565b91506122bb8261227a565b602082019050919050565b600060208201905081810360008301526122df816122a3565b9050919050565b7f5468652050726f7065727479206973206e6f74206c6973746564210000000000600082015250565b600061231c601b83612269565b9150612327826122e6565b602082019050919050565b6000602082019050818103600083015261234b8161230f565b9050919050565b7f4e487b7100000000000000000000000000000000000000000000000000000000600052601160045260246000fd5b60008160011c9050919050565b6000808291508390505b60018511156123d8578086048111156123b4576123b3612352565b5b60018516156123c35780820291505b80810290506123d185612381565b9450612398565b94509492505050565b6000826123f157600190506124ad565b816123ff57600090506124ad565b8160018114612415576002811461241f5761244e565b60019150506124ad565b60ff84111561243157612430612352565b5b8360020a91508482111561244857612447612352565b5b506124ad565b5060208310610133831016604e8410600b84101617156124835782820a90508381111561247e5761247d612352565b5b6124ad565b612490848484600161238e565b925090508184048111156124a7576124a6612352565b5b81810290505b9392505050565b60006124bf82611f91565b91506124ca83611f91565b92506124f77fffffffffffffffffffffffffffffffffffffffffffffffffffffffffffffffff84846123e1565b905092915050565b600061250a82611f91565b915061251583611f91565b925082820261252381611f91565b9150828204841483151761253a57612539612352565b5b5092915050565b7f436f6e74726163742062616c616e6365206973207a65726f0000000000000000600082015250565b6000612577601883612269565b915061258282612541565b602082019050919050565b600060208201905081810360008301526125a68161256a565b9050919050565b7f4f6e6c792073656c6c65722063616e2063616c6c2074686973206d6574686f64600082015250565b60006125e3602083612269565b91506125ee826125ad565b602082019050919050565b60006020820190508181036000830152612612816125d6565b9050919050565b600060608201905061262e600083018661206b565b61263b602083018561206b565b612648604083018461202a565b949350505050565b7f5468652050726f706572747920707572636861736520616c726561647920617060008201527f70726f7665640000000000000000000000000000000000000000000000000000602082015250565b60006126ac602683612269565b91506126b782612650565b604082019050919050565b600060208201905081810360008301526126db8161269f565b9050919050565b7f4f6e6c7920636f6e7472616374206f776e65722063616e2063616c6c2074686960008201527f73206d6574686f64000000000000000000000000000000000000000000000000602082015250565b600061273e602883612269565b9150612749826126e2565b604082019050919050565b6000602082019050818103600083015261276d81612731565b9050919050565b7f546865205075726368617365206e6f742079657420617070726f76656420627960008201527f207468652073656c6c6572000000000000000000000000000000000000000000602082015250565b60006127d0602b83612269565b91506127db82612774565b604082019050919050565b600060208201905081810360008301526127ff816127c3565b9050919050565b7f4e487b7100000000000000000000000000000000000000000000000000000000600052601260045260246000fd5b600061284082611f91565b915061284b83611f91565b92508261285b5761285a612806565b5b828204905092915050565b600061287182611f91565b915061287c83611f91565b925082820390508181111561289457612893612352565b5b92915050565b7f4275796572206e6f7420656e6f756768206d6f6e657900000000000000000000815250565b600081519050919050565b600081905092915050565b60005b838110156128f45780820151818401526020810190506128d9565b60008484015250505050565b600061290b826128c0565b61291581856128cb565b93506129258185602086016128d6565b80840191505092915050565b600061293c8261289a565b60168201915061294c8284612900565b915081905092915050565b6000601f19601f8301169050919050565b6000612973826128c0565b61297d8185612269565b935061298d8185602086016128d6565b61299681612957565b840191505092915050565b600060208201905081810360008301526129bb8184612968565b905092915050565b7f5468652050726f706572747920616c7265616479206c69737465642100000000600082015250565b60006129f9601c83612269565b9150612a04826129c3565b602082019050919050565b60006020820190508181036000830152612a28816129ec565b9050919050565b6000602082019050612a44600083018461202a565b92915050565b612a5381612059565b8114612a5e57600080fd5b50565b600081519050612a7081612a4a565b92915050565b600060208284031215612a8c57612a8b611f8c565b5b6000612a9a84828501612a61565b91505092915050565b7f596f7520617265206e6f7420746865206f776e6572206f66207468652070726f60008201527f7065727479000000000000000000000000000000000000000000000000000000602082015250565b6000612aff602583612269565b9150612b0a82612aa3565b604082019050919050565b60006020820190508181036000830152612b2e81612af2565b9050919050565b7f5468652050726f706572747920616c7265616479206861766520627579657200600082015250565b6000612b6b601f83612269565b9150612b7682612b35565b602082019050919050565b60006020820190508181036000830152612b9a81612b5e565b9050919050565b60006060820190508181036000830152612bbb8186612968565b9050612bca602083018561202a565b612bd7604083018461202a565b949350505050565b7f4e487b7100000000000000000000000000000000000000000000000000000000600052604160045260246000fd5b7f4e487b7100000000000000000000000000000000000000000000000000000000600052605160045260246000fdfe72656c6561736546756e6420256420657363726f772e70757263686173655072696365202564a264697066735822122052e8f76cc3b3ae26a6b8b8b338aece19260a8ddcb793a8220a9cfb326a101dd664736f6c63430008180033",
  "linkReferences": {},
  "deployedLinkReferences": {}
}