{
  "_format": "hh-sol-artifact-1",
  "contractName": "PropertyNFT",
  "sourceName": "contracts/Property.sol",
  "abi": [
    {
      "inputs": [],
      "stateMutability": "nonpayable",
      "type": "constructor"
    },
    {
      "inputs": [
        {
          "internalType": "address",
          "name": "sender",
          "type": "address"
        },
        {
          "internalType": "uint256",
          "name": "tokenId",
          "type": "uint256"
        },
        {
          "internalType": "address",
          "name": "owner",
          "type": "address"
        }
      ],
      "name": "ERC721IncorrectOwner",
      "type": "error"
    },
    {
      "inputs": [
        {
          "internalType": "address",
          "name": "operator",
          "type": "address"
        },
        {
          "internalType": "uint256",
          "name": "tokenId",
          "type": "uint256"
        }
      ],
      "name": "ERC721InsufficientApproval",
      "type": "error"
    },
    {
      "inputs": [
        {
          "internalType": "address",
          "name": "approver",
          "type": "address"
        }
      ],
      "name": "ERC721InvalidApprover",
      "type": "error"
    },
    {
      "inputs": [
        {
          "internalType": "address",
          "name": "operator",
          "type": "address"
        }
      ],
      "name": "ERC721InvalidOperator",
      "type": "error"
    },
    {
      "inputs": [
        {
          "internalType": "address",
          "name": "owner",
          "type": "address"
        }
      ],
      "name": "ERC721InvalidOwner",
      "type": "error"
    },
    {
      "inputs": [
        {
          "internalType": "address",
          "name": "receiver",
          "type": "address"
        }
      ],
      "name": "ERC721InvalidReceiver",
      "type": "error"
    },
    {
      "inputs": [
        {
          "internalType": "address",
          "name": "sender",
          "type": "address"
        }
      ],
      "name": "ERC721InvalidSender",
      "type": "error"
    },
    {
      "inputs": [
        {
          "internalType": "uint256",
          "name": "tokenId",
          "type": "uint256"
        }
      ],
      "name": "ERC721NonexistentToken",
      "type": "error"
    },
    {
      "anonymous": false,
      "inputs": [
        {
          "indexed": true,
          "internalType": "address",
          "name": "owner",
          "type": "address"
        },
        {
          "indexed": true,
          "internalType": "address",
          "name": "approved",
          "type": "address"
        },
        {
          "indexed": true,
          "internalType": "uint256",
          "name": "tokenId",
          "type": "uint256"
        }
      ],
      "name": "Approval",
      "type": "event"
    },
    {
      "anonymous": false,
      "inputs": [
        {
          "indexed": true,
          "internalType": "address",
          "name": "owner",
          "type": "address"
        },
        {
          "indexed": true,
          "internalType": "address",
          "name": "operator",
          "type": "address"
        },
        {
          "indexed": false,
          "internalType": "bool",
          "name": "approved",
          "type": "bool"
        }
      ],
      "name": "ApprovalForAll",
      "type": "event"
    },
    {
      "anonymous": false,
      "inputs": [
        {
          "indexed": false,
          "internalType": "uint256",
          "name": "_fromTokenId",
          "type": "uint256"
        },
        {
          "indexed": false,
          "internalType": "uint256",
          "name": "_toTokenId",
          "type": "uint256"
        }
      ],
      "name": "BatchMetadataUpdate",
      "type": "event"
    },
    {
      "anonymous": false,
      "inputs": [
        {
          "indexed": false,
          "internalType": "uint256",
          "name": "_tokenId",
          "type": "uint256"
        }
      ],
      "name": "MetadataUpdate",
      "type": "event"
    },
    {
      "anonymous": false,
      "inputs": [
        {
          "indexed": true,
          "internalType": "address",
          "name": "from",
          "type": "address"
        },
        {
          "indexed": true,
          "internalType": "address",
          "name": "to",
          "type": "address"
        },
        {
          "indexed": true,
          "internalType": "uint256",
          "name": "tokenId",
          "type": "uint256"
        }
      ],
      "name": "Transfer",
      "type": "event"
    },
    {
      "inputs": [
        {
          "internalType": "address",
          "name": "_to",
          "type": "address"
        },
        {
          "internalType": "uint256",
          "name": "_tokenId",
          "type": "uint256"
        }
      ],
      "name": "approve",
      "outputs": [],
      "stateMutability": "nonpayable",
      "type": "function"
    },
    {
      "inputs": [
        {
          "internalType": "address",
          "name": "owner",
          "type": "address"
        }
      ],
      "name": "balanceOf",
      "outputs": [
        {
          "internalType": "uint256",
          "name": "",
          "type": "uint256"
        }
      ],
      "stateMutability": "view",
      "type": "function"
    },
    {
      "inputs": [
        {
          "internalType": "uint256",
          "name": "tokenId",
          "type": "uint256"
        }
      ],
      "name": "getApproved",
      "outputs": [
        {
          "internalType": "address",
          "name": "",
          "type": "address"
        }
      ],
      "stateMutability": "view",
      "type": "function"
    },
    {
      "inputs": [
        {
          "internalType": "uint256",
          "name": "propertyId",
          "type": "uint256"
        }
      ],
      "name": "getProperty",
      "outputs": [
        {
          "components": [
            {
              "internalType": "uint256",
              "name": "propertyid",
              "type": "uint256"
            },
            {
              "internalType": "string",
              "name": "propertyName",
              "type": "string"
            },
            {
              "internalType": "string",
              "name": "propertyDesc",
              "type": "string"
            },
            {
              "internalType": "string",
              "name": "size",
              "type": "string"
            },
            {
              "internalType": "uint64",
              "name": "bedroom",
              "type": "uint64"
            },
            {
              "internalType": "uint64",
              "name": "bathroom",
              "type": "uint64"
            },
            {
              "internalType": "string[]",
              "name": "imageUrls",
              "type": "string[]"
            }
          ],
          "internalType": "struct PropertyNFT.Property",
          "name": "",
          "type": "tuple"
        }
      ],
      "stateMutability": "view",
      "type": "function"
    },
    {
      "inputs": [
        {
          "internalType": "address",
          "name": "owner",
          "type": "address"
        },
        {
          "internalType": "address",
          "name": "operator",
          "type": "address"
        }
      ],
      "name": "isApprovedForAll",
      "outputs": [
        {
          "internalType": "bool",
          "name": "",
          "type": "bool"
        }
      ],
      "stateMutability": "view",
      "type": "function"
    },
    {
      "inputs": [
        {
          "internalType": "string",
          "name": "tokenURI",
          "type": "string"
        },
        {
          "internalType": "string",
          "name": "_propertyName",
          "type": "string"
        },
        {
          "internalType": "string",
          "name": "_propertyDesc",
          "type": "string"
        },
        {
          "internalType": "string",
          "name": "_size",
          "type": "string"
        },
        {
          "internalType": "uint64",
          "name": "_bedroom",
          "type": "uint64"
        },
        {
          "internalType": "uint64",
          "name": "_bathroom",
          "type": "uint64"
        },
        {
          "internalType": "string",
          "name": "_imageUrls1",
          "type": "string"
        },
        {
          "internalType": "string",
          "name": "_imageUrls2",
          "type": "string"
        },
        {
          "internalType": "string",
          "name": "_imageUrls3",
          "type": "string"
        }
      ],
      "name": "mint",
      "outputs": [
        {
          "internalType": "uint256",
          "name": "",
          "type": "uint256"
        }
      ],
      "stateMutability": "nonpayable",
      "type": "function"
    },
    {
      "inputs": [],
      "name": "name",
      "outputs": [
        {
          "internalType": "string",
          "name": "",
          "type": "string"
        }
      ],
      "stateMutability": "view",
      "type": "function"
    },
    {
      "inputs": [],
      "name": "owner",
      "outputs": [
        {
          "internalType": "address",
          "name": "",
          "type": "address"
        }
      ],
      "stateMutability": "view",
      "type": "function"
    },
    {
      "inputs": [
        {
          "internalType": "uint256",
          "name": "tokenId",
          "type": "uint256"
        }
      ],
      "name": "ownerOf",
      "outputs": [
        {
          "internalType": "address",
          "name": "",
          "type": "address"
        }
      ],
      "stateMutability": "view",
      "type": "function"
    },
    {
      "inputs": [
        {
          "internalType": "uint256",
          "name": "",
          "type": "uint256"
        }
      ],
      "name": "properties",
      "outputs": [
        {
          "internalType": "uint256",
          "name": "propertyid",
          "type": "uint256"
        },
        {
          "internalType": "string",
          "name": "propertyName",
          "type": "string"
        },
        {
          "internalType": "string",
          "name": "propertyDesc",
          "type": "string"
        },
        {
          "internalType": "string",
          "name": "size",
          "type": "string"
        },
        {
          "internalType": "uint64",
          "name": "bedroom",
          "type": "uint64"
        },
        {
          "internalType": "uint64",
          "name": "bathroom",
          "type": "uint64"
        }
      ],
      "stateMutability": "view",
      "type": "function"
    },
    {
      "inputs": [
        {
          "internalType": "address",
          "name": "from",
          "type": "address"
        },
        {
          "internalType": "address",
          "name": "to",
          "type": "address"
        },
        {
          "internalType": "uint256",
          "name": "tokenId",
          "type": "uint256"
        }
      ],
      "name": "safeTransferFrom",
      "outputs": [],
      "stateMutability": "nonpayable",
      "type": "function"
    },
    {
      "inputs": [
        {
          "internalType": "address",
          "name": "from",
          "type": "address"
        },
        {
          "internalType": "address",
          "name": "to",
          "type": "address"
        },
        {
          "internalType": "uint256",
          "name": "tokenId",
          "type": "uint256"
        },
        {
          "internalType": "bytes",
          "name": "data",
          "type": "bytes"
        }
      ],
      "name": "safeTransferFrom",
      "outputs": [],
      "stateMutability": "nonpayable",
      "type": "function"
    },
    {
      "inputs": [
        {
          "internalType": "address",
          "name": "operator",
          "type": "address"
        },
        {
          "internalType": "bool",
          "name": "approved",
          "type": "bool"
        }
      ],
      "name": "setApprovalForAll",
      "outputs": [],
      "stateMutability": "nonpayable",
      "type": "function"
    },
    {
      "inputs": [
        {
          "internalType": "bytes4",
          "name": "interfaceId",
          "type": "bytes4"
        }
      ],
      "name": "supportsInterface",
      "outputs": [
        {
          "internalType": "bool",
          "name": "",
          "type": "bool"
        }
      ],
      "stateMutability": "view",
      "type": "function"
    },
    {
      "inputs": [],
      "name": "symbol",
      "outputs": [
        {
          "internalType": "string",
          "name": "",
          "type": "string"
        }
      ],
      "stateMutability": "view",
      "type": "function"
    },
    {
      "inputs": [
        {
          "internalType": "uint256",
          "name": "tokenId",
          "type": "uint256"
        }
      ],
      "name": "tokenURI",
      "outputs": [
        {
          "internalType": "string",
          "name": "",
          "type": "string"
        }
      ],
      "stateMutability": "view",
      "type": "function"
    },
    {
      "inputs": [],
      "name": "totalSupply",
      "outputs": [
        {
          "internalType": "uint256",
          "name": "",
          "type": "uint256"
        }
      ],
      "stateMutability": "view",
      "type": "function"
    },
    {
      "inputs": [
        {
          "internalType": "address",
          "name": "from",
          "type": "address"
        },
        {
          "internalType": "address",
          "name": "to",
          "type": "address"
        },
        {
          "internalType": "uint256",
          "name": "tokenId",
          "type": "uint256"
        }
      ],
      "name": "transferFrom",
      "outputs": [],
      "stateMutability": "nonpayable",
      "type": "function"
    }
  ],
  "bytecode": "0x608060405260006007553480156200001657600080fd5b506040518060400160405280600881526020017f50726f70657274790000000000000000000000000000000000000000000000008152506040518060400160405280600481526020017f50524f500000000000000000000000000000000000000000000000000000000081525081600090816200009491906200036a565b508060019081620000a691906200036a565b50505033600860006101000a81548173ffffffffffffffffffffffffffffffffffffffff021916908373ffffffffffffffffffffffffffffffffffffffff16021790555062000451565b600081519050919050565b7f4e487b7100000000000000000000000000000000000000000000000000000000600052604160045260246000fd5b7f4e487b7100000000000000000000000000000000000000000000000000000000600052602260045260246000fd5b600060028204905060018216806200017257607f821691505b6020821081036200018857620001876200012a565b5b50919050565b60008190508160005260206000209050919050565b60006020601f8301049050919050565b600082821b905092915050565b600060088302620001f27fffffffffffffffffffffffffffffffffffffffffffffffffffffffffffffffff82620001b3565b620001fe8683620001b3565b95508019841693508086168417925050509392505050565b6000819050919050565b6000819050919050565b60006200024b620002456200023f8462000216565b62000220565b62000216565b9050919050565b6000819050919050565b62000267836200022a565b6200027f620002768262000252565b848454620001c0565b825550505050565b600090565b6200029662000287565b620002a38184846200025c565b505050565b5b81811015620002cb57620002bf6000826200028c565b600181019050620002a9565b5050565b601f8211156200031a57620002e4816200018e565b620002ef84620001a3565b81016020851015620002ff578190505b620003176200030e85620001a3565b830182620002a8565b50505b505050565b600082821c905092915050565b60006200033f600019846008026200031f565b1980831691505092915050565b60006200035a83836200032c565b9150826002028217905092915050565b6200037582620000f0565b67ffffffffffffffff811115620003915762000390620000fb565b5b6200039d825462000159565b620003aa828285620002cf565b600060209050601f831160018114620003e25760008415620003cd578287015190505b620003d985826200034c565b86555062000449565b601f198416620003f2866200018e565b60005b828110156200041c57848901518255600182019150602085019450602081019050620003f5565b868310156200043c578489015162000438601f8916826200032c565b8355505b6001600288020188555050505b505050505050565b61315280620004616000396000f3fe608060405234801561001057600080fd5b50600436106101165760003560e01c80636352211e116100a2578063a22cb46511610071578063a22cb46514610307578063b88d4fde14610323578063c87b56dd1461033f578063e985e9c51461036f578063f7b108081461039f57610116565b80636352211e1461026b57806370a082311461029b5780638da5cb5b146102cb57806395d89b41146102e957610116565b8063095ea7b3116100e9578063095ea7b3146101c957806318160ddd146101e557806323b872dd1461020357806332665ffb1461021f57806342842e0e1461024f57610116565b806301ffc9a71461011b57806302e555a71461014b57806306fdde031461017b578063081812fc14610199575b600080fd5b61013560048036038101906101309190612165565b6103d4565b60405161014291906121ad565b60405180910390f35b6101656004803603810190610160919061234e565b610435565b60405161017291906124f5565b60405180910390f35b610183610655565b604051610190919061258f565b60405180910390f35b6101b360048036038101906101ae91906125dd565b6106e7565b6040516101c0919061264b565b60405180910390f35b6101e360048036038101906101de9190612692565b610703565b005b6101ed610711565b6040516101fa91906124f5565b60405180910390f35b61021d600480360381019061021891906126d2565b61071b565b005b610239600480360381019061023491906125dd565b61081d565b6040516102469190612900565b60405180910390f35b610269600480360381019061026491906126d2565b610b4d565b005b610285600480360381019061028091906125dd565b610b6d565b604051610292919061264b565b60405180910390f35b6102b560048036038101906102b09190612922565b610b7f565b6040516102c291906124f5565b60405180910390f35b6102d3610c39565b6040516102e0919061264b565b60405180910390f35b6102f1610c5f565b6040516102fe919061258f565b60405180910390f35b610321600480360381019061031c919061297b565b610cf1565b005b61033d60048036038101906103389190612a5c565b610d07565b005b610359600480360381019061035491906125dd565b610d24565b604051610366919061258f565b60405180910390f35b61038960048036038101906103849190612adf565b610e37565b60405161039691906121ad565b60405180910390f35b6103b960048036038101906103b491906125dd565b610ecb565b6040516103cb96959493929190612b2e565b60405180910390f35b6000634906490660e01b7bffffffffffffffffffffffffffffffffffffffffffffffffffffffff1916827bffffffffffffffffffffffffffffffffffffffffffffffffffffffff1916148061042e575061042d826110c7565b5b9050919050565b60006007600081548092919061044a90612bd3565b91905055506000600754905061046033826111a9565b61046a818c6112a2565b6000600367ffffffffffffffff811115610487576104866121e3565b5b6040519080825280602002602001820160405280156104ba57816020015b60608152602001906001900390816104a55790505b50905085816000815181106104d2576104d1612c1b565b5b602002602001018190525084816001815181106104f2576104f1612c1b565b5b6020026020010181905250838160028151811061051257610511612c1b565b5b60200260200101819052506040518060e0016040528060075481526020018c81526020018b81526020018a81526020018967ffffffffffffffff1681526020018867ffffffffffffffff16815260200182815250600960008481526020019081526020016000206000820151816000015560208201518160010190816105989190612e56565b5060408201518160020190816105ae9190612e56565b5060608201518160030190816105c49190612e56565b5060808201518160040160006101000a81548167ffffffffffffffff021916908367ffffffffffffffff16021790555060a08201518160040160086101000a81548167ffffffffffffffff021916908367ffffffffffffffff16021790555060c082015181600501908051906020019061063f929190611fce565b5090505081925050509998505050505050505050565b60606000805461066490612c79565b80601f016020809104026020016040519081016040528092919081815260200182805461069090612c79565b80156106dd5780601f106106b2576101008083540402835291602001916106dd565b820191906000526020600020905b8154815290600101906020018083116106c057829003601f168201915b5050505050905090565b60006106f2826112fe565b506106fc82611386565b9050919050565b61070d82826113c3565b5050565b6000600754905090565b600073ffffffffffffffffffffffffffffffffffffffff168273ffffffffffffffffffffffffffffffffffffffff160361078d5760006040517f64a0ae92000000000000000000000000000000000000000000000000000000008152600401610784919061264b565b60405180910390fd5b60006107a1838361079c6113d9565b6113e1565b90508373ffffffffffffffffffffffffffffffffffffffff168173ffffffffffffffffffffffffffffffffffffffff1614610817578382826040517f64283d7b00000000000000000000000000000000000000000000000000000000815260040161080e93929190612f28565b60405180910390fd5b50505050565b610825612027565b6000600960008481526020019081526020016000206040518060e00160405290816000820154815260200160018201805461085f90612c79565b80601f016020809104026020016040519081016040528092919081815260200182805461088b90612c79565b80156108d85780601f106108ad576101008083540402835291602001916108d8565b820191906000526020600020905b8154815290600101906020018083116108bb57829003601f168201915b505050505081526020016002820180546108f190612c79565b80601f016020809104026020016040519081016040528092919081815260200182805461091d90612c79565b801561096a5780601f1061093f5761010080835404028352916020019161096a565b820191906000526020600020905b81548152906001019060200180831161094d57829003601f168201915b5050505050815260200160038201805461098390612c79565b80601f01602080910402602001604051908101604052809291908181526020018280546109af90612c79565b80156109fc5780601f106109d1576101008083540402835291602001916109fc565b820191906000526020600020905b8154815290600101906020018083116109df57829003601f168201915b505050505081526020016004820160009054906101000a900467ffffffffffffffff1667ffffffffffffffff1667ffffffffffffffff1681526020016004820160089054906101000a900467ffffffffffffffff1667ffffffffffffffff1667ffffffffffffffff16815260200160058201805480602002602001604051908101604052809291908181526020016000905b82821015610b3a578382906000526020600020018054610aad90612c79565b80601f0160208091040260200160405190810160405280929190818152602001828054610ad990612c79565b8015610b265780601f10610afb57610100808354040283529160200191610b26565b820191906000526020600020905b815481529060010190602001808311610b0957829003601f168201915b505050505081526020019060010190610a8e565b5050505081525050905080915050919050565b610b6883838360405180602001604052806000815250610d07565b505050565b6000610b78826112fe565b9050919050565b60008073ffffffffffffffffffffffffffffffffffffffff168273ffffffffffffffffffffffffffffffffffffffff1603610bf25760006040517f89c62b64000000000000000000000000000000000000000000000000000000008152600401610be9919061264b565b60405180910390fd5b600360008373ffffffffffffffffffffffffffffffffffffffff1673ffffffffffffffffffffffffffffffffffffffff168152602001908152602001600020549050919050565b600860009054906101000a900473ffffffffffffffffffffffffffffffffffffffff1681565b606060018054610c6e90612c79565b80601f0160208091040260200160405190810160405280929190818152602001828054610c9a90612c79565b8015610ce75780601f10610cbc57610100808354040283529160200191610ce7565b820191906000526020600020905b815481529060010190602001808311610cca57829003601f168201915b5050505050905090565b610d03610cfc6113d9565b83836115fb565b5050565b610d1284848461071b565b610d1e8484848461176a565b50505050565b6060610d2f826112fe565b506000600660008481526020019081526020016000208054610d5090612c79565b80601f0160208091040260200160405190810160405280929190818152602001828054610d7c90612c79565b8015610dc95780601f10610d9e57610100808354040283529160200191610dc9565b820191906000526020600020905b815481529060010190602001808311610dac57829003601f168201915b505050505090506000610dda611921565b90506000815103610def578192505050610e32565b600082511115610e24578082604051602001610e0c929190612f9b565b60405160208183030381529060405292505050610e32565b610e2d84611941565b925050505b919050565b6000600560008473ffffffffffffffffffffffffffffffffffffffff1673ffffffffffffffffffffffffffffffffffffffff16815260200190815260200160002060008373ffffffffffffffffffffffffffffffffffffffff1673ffffffffffffffffffffffffffffffffffffffff16815260200190815260200160002060009054906101000a900460ff16905092915050565b6009602052806000526040600020600091509050806000015490806001018054610ef490612c79565b80601f0160208091040260200160405190810160405280929190818152602001828054610f2090612c79565b8015610f6d5780601f10610f4257610100808354040283529160200191610f6d565b820191906000526020600020905b815481529060010190602001808311610f5057829003601f168201915b505050505090806002018054610f8290612c79565b80601f0160208091040260200160405190810160405280929190818152602001828054610fae90612c79565b8015610ffb5780601f10610fd057610100808354040283529160200191610ffb565b820191906000526020600020905b815481529060010190602001808311610fde57829003601f168201915b50505050509080600301805461101090612c79565b80601f016020809104026020016040519081016040528092919081815260200182805461103c90612c79565b80156110895780601f1061105e57610100808354040283529160200191611089565b820191906000526020600020905b81548152906001019060200180831161106c57829003601f168201915b5050505050908060040160009054906101000a900467ffffffffffffffff16908060040160089054906101000a900467ffffffffffffffff16905086565b60007f80ac58cd000000000000000000000000000000000000000000000000000000007bffffffffffffffffffffffffffffffffffffffffffffffffffffffff1916827bffffffffffffffffffffffffffffffffffffffffffffffffffffffff1916148061119257507f5b5e139f000000000000000000000000000000000000000000000000000000007bffffffffffffffffffffffffffffffffffffffffffffffffffffffff1916827bffffffffffffffffffffffffffffffffffffffffffffffffffffffff1916145b806111a257506111a1826119aa565b5b9050919050565b600073ffffffffffffffffffffffffffffffffffffffff168273ffffffffffffffffffffffffffffffffffffffff160361121b5760006040517f64a0ae92000000000000000000000000000000000000000000000000000000008152600401611212919061264b565b60405180910390fd5b6000611229838360006113e1565b9050600073ffffffffffffffffffffffffffffffffffffffff168173ffffffffffffffffffffffffffffffffffffffff161461129d5760006040517f73c6ac6e000000000000000000000000000000000000000000000000000000008152600401611294919061264b565b60405180910390fd5b505050565b806006600084815260200190815260200160002090816112c29190612e56565b507ff8e1a15aba9398e019f0b49df1a4fde98ee17ae345cb5f6b5e2c27f5033e8ce7826040516112f291906124f5565b60405180910390a15050565b60008061130a83611a14565b9050600073ffffffffffffffffffffffffffffffffffffffff168173ffffffffffffffffffffffffffffffffffffffff160361137d57826040517f7e27328900000000000000000000000000000000000000000000000000000000815260040161137491906124f5565b60405180910390fd5b80915050919050565b60006004600083815260200190815260200160002060009054906101000a900473ffffffffffffffffffffffffffffffffffffffff169050919050565b6113d582826113d06113d9565b611a51565b5050565b600033905090565b6000806113ed84611a14565b9050600073ffffffffffffffffffffffffffffffffffffffff168373ffffffffffffffffffffffffffffffffffffffff161461142f5761142e818486611a63565b5b600073ffffffffffffffffffffffffffffffffffffffff168173ffffffffffffffffffffffffffffffffffffffff16146114c057611471600085600080611b27565b6001600360008373ffffffffffffffffffffffffffffffffffffffff1673ffffffffffffffffffffffffffffffffffffffff168152602001908152602001600020600082825403925050819055505b600073ffffffffffffffffffffffffffffffffffffffff168573ffffffffffffffffffffffffffffffffffffffff1614611543576001600360008773ffffffffffffffffffffffffffffffffffffffff1673ffffffffffffffffffffffffffffffffffffffff168152602001908152602001600020600082825401925050819055505b846002600086815260200190815260200160002060006101000a81548173ffffffffffffffffffffffffffffffffffffffff021916908373ffffffffffffffffffffffffffffffffffffffff160217905550838573ffffffffffffffffffffffffffffffffffffffff168273ffffffffffffffffffffffffffffffffffffffff167fddf252ad1be2c89b69c2b068fc378daa952ba7f163c4a11628f55a4df523b3ef60405160405180910390a4809150509392505050565b600073ffffffffffffffffffffffffffffffffffffffff168273ffffffffffffffffffffffffffffffffffffffff160361166c57816040517f5b08ba18000000000000000000000000000000000000000000000000000000008152600401611663919061264b565b60405180910390fd5b80600560008573ffffffffffffffffffffffffffffffffffffffff1673ffffffffffffffffffffffffffffffffffffffff16815260200190815260200160002060008473ffffffffffffffffffffffffffffffffffffffff1673ffffffffffffffffffffffffffffffffffffffff16815260200190815260200160002060006101000a81548160ff0219169083151502179055508173ffffffffffffffffffffffffffffffffffffffff168373ffffffffffffffffffffffffffffffffffffffff167f17307eab39ab6107e8899845ad3d59bd9653f200f220920489ca2b5937696c318360405161175d91906121ad565b60405180910390a3505050565b60008373ffffffffffffffffffffffffffffffffffffffff163b111561191b578273ffffffffffffffffffffffffffffffffffffffff1663150b7a026117ae6113d9565b8685856040518563ffffffff1660e01b81526004016117d09493929190613014565b6020604051808303816000875af192505050801561180c57506040513d601f19601f820116820180604052508101906118099190613075565b60015b611890573d806000811461183c576040519150601f19603f3d011682016040523d82523d6000602084013e611841565b606091505b50600081510361188857836040517f64a0ae9200000000000000000000000000000000000000000000000000000000815260040161187f919061264b565b60405180910390fd5b805181602001fd5b63150b7a0260e01b7bffffffffffffffffffffffffffffffffffffffffffffffffffffffff1916817bffffffffffffffffffffffffffffffffffffffffffffffffffffffff19161461191957836040517f64a0ae92000000000000000000000000000000000000000000000000000000008152600401611910919061264b565b60405180910390fd5b505b50505050565b60606040518060600160405280602281526020016130fb60229139905090565b606061194c826112fe565b506000611957611921565b9050600081511161197757604051806020016040528060008152506119a2565b8061198184611cec565b604051602001611992929190612f9b565b6040516020818303038152906040525b915050919050565b60007f01ffc9a7000000000000000000000000000000000000000000000000000000007bffffffffffffffffffffffffffffffffffffffffffffffffffffffff1916827bffffffffffffffffffffffffffffffffffffffffffffffffffffffff1916149050919050565b60006002600083815260200190815260200160002060009054906101000a900473ffffffffffffffffffffffffffffffffffffffff169050919050565b611a5e8383836001611b27565b505050565b611a6e838383611dba565b611b2257600073ffffffffffffffffffffffffffffffffffffffff168373ffffffffffffffffffffffffffffffffffffffff1603611ae357806040517f7e273289000000000000000000000000000000000000000000000000000000008152600401611ada91906124f5565b60405180910390fd5b81816040517f177e802f000000000000000000000000000000000000000000000000000000008152600401611b199291906130a2565b60405180910390fd5b505050565b8080611b605750600073ffffffffffffffffffffffffffffffffffffffff168273ffffffffffffffffffffffffffffffffffffffff1614155b15611c94576000611b70846112fe565b9050600073ffffffffffffffffffffffffffffffffffffffff168373ffffffffffffffffffffffffffffffffffffffff1614158015611bdb57508273ffffffffffffffffffffffffffffffffffffffff168173ffffffffffffffffffffffffffffffffffffffff1614155b8015611bee5750611bec8184610e37565b155b15611c3057826040517fa9fbf51f000000000000000000000000000000000000000000000000000000008152600401611c27919061264b565b60405180910390fd5b8115611c9257838573ffffffffffffffffffffffffffffffffffffffff168273ffffffffffffffffffffffffffffffffffffffff167f8c5be1e5ebec7d5bd14f71427d1e84f3dd0314c0f7b2291e5b200ac8c7c3b92560405160405180910390a45b505b836004600085815260200190815260200160002060006101000a81548173ffffffffffffffffffffffffffffffffffffffff021916908373ffffffffffffffffffffffffffffffffffffffff16021790555050505050565b606060006001611cfb84611e7b565b01905060008167ffffffffffffffff811115611d1a57611d196121e3565b5b6040519080825280601f01601f191660200182016040528015611d4c5781602001600182028036833780820191505090505b509050600082602001820190505b600115611daf578080600190039150507f3031323334353637383961626364656600000000000000000000000000000000600a86061a8153600a8581611da357611da26130cb565b5b04945060008503611d5a575b819350505050919050565b60008073ffffffffffffffffffffffffffffffffffffffff168373ffffffffffffffffffffffffffffffffffffffff1614158015611e7257508273ffffffffffffffffffffffffffffffffffffffff168473ffffffffffffffffffffffffffffffffffffffff161480611e335750611e328484610e37565b5b80611e7157508273ffffffffffffffffffffffffffffffffffffffff16611e5983611386565b73ffffffffffffffffffffffffffffffffffffffff16145b5b90509392505050565b600080600090507a184f03e93ff9f4daa797ed6e38ed64bf6a1f0100000000000000008310611ed9577a184f03e93ff9f4daa797ed6e38ed64bf6a1f0100000000000000008381611ecf57611ece6130cb565b5b0492506040810190505b6d04ee2d6d415b85acef81000000008310611f16576d04ee2d6d415b85acef81000000008381611f0c57611f0b6130cb565b5b0492506020810190505b662386f26fc100008310611f4557662386f26fc100008381611f3b57611f3a6130cb565b5b0492506010810190505b6305f5e1008310611f6e576305f5e1008381611f6457611f636130cb565b5b0492506008810190505b6127108310611f93576127108381611f8957611f886130cb565b5b0492506004810190505b60648310611fb65760648381611fac57611fab6130cb565b5b0492506002810190505b600a8310611fc5576001810190505b80915050919050565b828054828255906000526020600020908101928215612016579160200282015b828111156120155782518290816120059190612e56565b5091602001919060010190611fee565b5b5090506120239190612078565b5090565b6040518060e0016040528060008152602001606081526020016060815260200160608152602001600067ffffffffffffffff168152602001600067ffffffffffffffff168152602001606081525090565b5b80821115612098576000818161208f919061209c565b50600101612079565b5090565b5080546120a890612c79565b6000825580601f106120ba57506120d9565b601f0160209004906000526020600020908101906120d891906120dc565b5b50565b5b808211156120f55760008160009055506001016120dd565b5090565b6000604051905090565b600080fd5b600080fd5b60007fffffffff0000000000000000000000000000000000000000000000000000000082169050919050565b6121428161210d565b811461214d57600080fd5b50565b60008135905061215f81612139565b92915050565b60006020828403121561217b5761217a612103565b5b600061218984828501612150565b91505092915050565b60008115159050919050565b6121a781612192565b82525050565b60006020820190506121c2600083018461219e565b92915050565b600080fd5b600080fd5b6000601f19601f8301169050919050565b7f4e487b7100000000000000000000000000000000000000000000000000000000600052604160045260246000fd5b61221b826121d2565b810181811067ffffffffffffffff8211171561223a576122396121e3565b5b80604052505050565b600061224d6120f9565b90506122598282612212565b919050565b600067ffffffffffffffff821115612279576122786121e3565b5b612282826121d2565b9050602081019050919050565b82818337600083830152505050565b60006122b16122ac8461225e565b612243565b9050828152602081018484840111156122cd576122cc6121cd565b5b6122d884828561228f565b509392505050565b600082601f8301126122f5576122f46121c8565b5b813561230584826020860161229e565b91505092915050565b600067ffffffffffffffff82169050919050565b61232b8161230e565b811461233657600080fd5b50565b60008135905061234881612322565b92915050565b60008060008060008060008060006101208a8c03121561237157612370612103565b5b60008a013567ffffffffffffffff81111561238f5761238e612108565b5b61239b8c828d016122e0565b99505060208a013567ffffffffffffffff8111156123bc576123bb612108565b5b6123c88c828d016122e0565b98505060408a013567ffffffffffffffff8111156123e9576123e8612108565b5b6123f58c828d016122e0565b97505060608a013567ffffffffffffffff81111561241657612415612108565b5b6124228c828d016122e0565b96505060806124338c828d01612339565b95505060a06124448c828d01612339565b94505060c08a013567ffffffffffffffff81111561246557612464612108565b5b6124718c828d016122e0565b93505060e08a013567ffffffffffffffff81111561249257612491612108565b5b61249e8c828d016122e0565b9250506101008a013567ffffffffffffffff8111156124c0576124bf612108565b5b6124cc8c828d016122e0565b9150509295985092959850929598565b6000819050919050565b6124ef816124dc565b82525050565b600060208201905061250a60008301846124e6565b92915050565b600081519050919050565b600082825260208201905092915050565b60005b8381101561254a57808201518184015260208101905061252f565b60008484015250505050565b600061256182612510565b61256b818561251b565b935061257b81856020860161252c565b612584816121d2565b840191505092915050565b600060208201905081810360008301526125a98184612556565b905092915050565b6125ba816124dc565b81146125c557600080fd5b50565b6000813590506125d7816125b1565b92915050565b6000602082840312156125f3576125f2612103565b5b6000612601848285016125c8565b91505092915050565b600073ffffffffffffffffffffffffffffffffffffffff82169050919050565b60006126358261260a565b9050919050565b6126458161262a565b82525050565b6000602082019050612660600083018461263c565b92915050565b61266f8161262a565b811461267a57600080fd5b50565b60008135905061268c81612666565b92915050565b600080604083850312156126a9576126a8612103565b5b60006126b78582860161267d565b92505060206126c8858286016125c8565b9150509250929050565b6000806000606084860312156126eb576126ea612103565b5b60006126f98682870161267d565b935050602061270a8682870161267d565b925050604061271b868287016125c8565b9150509250925092565b61272e816124dc565b82525050565b600082825260208201905092915050565b600061275082612510565b61275a8185612734565b935061276a81856020860161252c565b612773816121d2565b840191505092915050565b6127878161230e565b82525050565b600081519050919050565b600082825260208201905092915050565b6000819050602082019050919050565b60006127c58383612745565b905092915050565b6000602082019050919050565b60006127e58261278d565b6127ef8185612798565b935083602082028501612801856127a9565b8060005b8581101561283d578484038952815161281e85826127b9565b9450612829836127cd565b925060208a01995050600181019050612805565b50829750879550505050505092915050565b600060e0830160008301516128676000860182612725565b506020830151848203602086015261287f8282612745565b915050604083015184820360408601526128998282612745565b915050606083015184820360608601526128b38282612745565b91505060808301516128c8608086018261277e565b5060a08301516128db60a086018261277e565b5060c083015184820360c08601526128f382826127da565b9150508091505092915050565b6000602082019050818103600083015261291a818461284f565b905092915050565b60006020828403121561293857612937612103565b5b60006129468482850161267d565b91505092915050565b61295881612192565b811461296357600080fd5b50565b6000813590506129758161294f565b92915050565b6000806040838503121561299257612991612103565b5b60006129a08582860161267d565b92505060206129b185828601612966565b9150509250929050565b600067ffffffffffffffff8211156129d6576129d56121e3565b5b6129df826121d2565b9050602081019050919050565b60006129ff6129fa846129bb565b612243565b905082815260208101848484011115612a1b57612a1a6121cd565b5b612a2684828561228f565b509392505050565b600082601f830112612a4357612a426121c8565b5b8135612a538482602086016129ec565b91505092915050565b60008060008060808587031215612a7657612a75612103565b5b6000612a848782880161267d565b9450506020612a958782880161267d565b9350506040612aa6878288016125c8565b925050606085013567ffffffffffffffff811115612ac757612ac6612108565b5b612ad387828801612a2e565b91505092959194509250565b60008060408385031215612af657612af5612103565b5b6000612b048582860161267d565b9250506020612b158582860161267d565b9150509250929050565b612b288161230e565b82525050565b600060c082019050612b4360008301896124e6565b8181036020830152612b558188612556565b90508181036040830152612b698187612556565b90508181036060830152612b7d8186612556565b9050612b8c6080830185612b1f565b612b9960a0830184612b1f565b979650505050505050565b7f4e487b7100000000000000000000000000000000000000000000000000000000600052601160045260246000fd5b6000612bde826124dc565b91507fffffffffffffffffffffffffffffffffffffffffffffffffffffffffffffffff8203612c1057612c0f612ba4565b5b600182019050919050565b7f4e487b7100000000000000000000000000000000000000000000000000000000600052603260045260246000fd5b7f4e487b7100000000000000000000000000000000000000000000000000000000600052602260045260246000fd5b60006002820490506001821680612c9157607f821691505b602082108103612ca457612ca3612c4a565b5b50919050565b60008190508160005260206000209050919050565b60006020601f8301049050919050565b600082821b905092915050565b600060088302612d0c7fffffffffffffffffffffffffffffffffffffffffffffffffffffffffffffffff82612ccf565b612d168683612ccf565b95508019841693508086168417925050509392505050565b6000819050919050565b6000612d53612d4e612d49846124dc565b612d2e565b6124dc565b9050919050565b6000819050919050565b612d6d83612d38565b612d81612d7982612d5a565b848454612cdc565b825550505050565b600090565b612d96612d89565b612da1818484612d64565b505050565b5b81811015612dc557612dba600082612d8e565b600181019050612da7565b5050565b601f821115612e0a57612ddb81612caa565b612de484612cbf565b81016020851015612df3578190505b612e07612dff85612cbf565b830182612da6565b50505b505050565b600082821c905092915050565b6000612e2d60001984600802612e0f565b1980831691505092915050565b6000612e468383612e1c565b9150826002028217905092915050565b612e5f82612510565b67ffffffffffffffff811115612e7857612e776121e3565b5b612e828254612c79565b612e8d828285612dc9565b600060209050601f831160018114612ec05760008415612eae578287015190505b612eb88582612e3a565b865550612f20565b601f198416612ece86612caa565b60005b82811015612ef657848901518255600182019150602085019450602081019050612ed1565b86831015612f135784890151612f0f601f891682612e1c565b8355505b6001600288020188555050505b505050505050565b6000606082019050612f3d600083018661263c565b612f4a60208301856124e6565b612f57604083018461263c565b949350505050565b600081905092915050565b6000612f7582612510565b612f7f8185612f5f565b9350612f8f81856020860161252c565b80840191505092915050565b6000612fa78285612f6a565b9150612fb38284612f6a565b91508190509392505050565b600081519050919050565b600082825260208201905092915050565b6000612fe682612fbf565b612ff08185612fca565b935061300081856020860161252c565b613009816121d2565b840191505092915050565b6000608082019050613029600083018761263c565b613036602083018661263c565b61304360408301856124e6565b81810360608301526130558184612fdb565b905095945050505050565b60008151905061306f81612139565b92915050565b60006020828403121561308b5761308a612103565b5b600061309984828501613060565b91505092915050565b60006040820190506130b7600083018561263c565b6130c460208301846124e6565b9392505050565b7f4e487b7100000000000000000000000000000000000000000000000000000000600052601260045260246000fdfe68747470733a2f2f676174657761792e70696e6174612e636c6f75642f697066732fa2646970667358221220c1c967e9e26cc6ff1507fb4e5f2a73e14293e2ded8840b6e276d2cb0dd7c43b664736f6c63430008180033",
  "linkReferences": {},
  "deployedLinkReferences": {}
}